:1000000000000320D1010000059C0000BD9B000002
:10001000BD9B0000BD9B0000BD9B0000BD9B000080
:10002000BD9B0000BD9B0000BD9B0000059C000027
:10003000059C0000BD9B0000F9B50000FDB5000067
:10004000059C0000059C0000059C0000059C00002C
:10005000059C0000059C0000059C0000059C00001C
:10006000059C0000059C0000059C0000059C00000C
:10007000059C0000059C0000059C0000059C0000FC
:10008000059C0000059C0000059C0000059C0000EC
:10009000059C0000059C0000059C0000059C0000DC
:1000A000D58E0000E18E0000059C0000059C00003C
:1000B000059C0000059C0000059C0000059C0000BC
:1000C000059C0000059C0000059C0000059C0000AC
:1000D000059C0000059C0000059C0000059C00009C
:1000E000059C0000059C0000059C0000059C00008C
:1000F000059C0000059C0000059C0000059C00007C
:10010000059C0000059C0000059C0000059C00006B
:1001100035970000B1A50000059C0000059C00007B
:10012000059C0000059C0000059C0000059C00004B
:10013000059C0000059C0000059C0000059C00003B
:10014000059C0000059C0000059C0000059C00002B
:10015000059C0000059C0000059C0000059C00001B
:10016000059C0000059C0000ED8E0000059C000031
:10017000059C0000059C0000059C0000059C0000FB
:10018000059C0000059C0000059C0000059C0000EB
:10019000059C0000059C0000059C0000059C0000DB
:1001A000059C0000059C0000059C0000059C0000CB
:1001B000059C0000059C0000059C0000059C0000BB
:1001C000059C0000059C0000059C0000059C0000AB
:1001D0005C4B4CF2205210B51A804DF628121A8052
:1001E00000BF00BF09F012FD574B4FF030621A609C
:1001F000564A9A60564ADA60564B4FF470021A60BB
:10020000554B564A1A60564B1A78110703D51A787F
:1002100042F008021A70534B5349AA221A70534AEB
:10022000534B8B4204D252F8040F43F8040BF8E707
:10023000504B514900228B4202D243F8042BFAE77B
:100240004E494F4A002352F8230041F8230001335E
:10025000742BF8D14B4B4C4A802103F8011B93427D
:10026000FBD14A4B454A1A60494B8A221A70A3F5C2
:10027000805324225A70A0221A709A799207FCD5D2
:100280009A79D406FCD4434A937903F00C03082BE3
:10029000FAD1414B60221A7002331A78802AFCD1BD
:1002A0003C4B01221A715D225A719A799006FCD555
:1002B0009979384A4906FBD5384B394919600021EC
:1002C000596020231370937903F00C030C2BFAD19F
:1002D000344B354A1A60354A354C136813F4807331
:1002E00003D123604FF4A8531360324B324A1A6093
:1002F00000225A60072243F8042C304AC3F80C2D20
:1003000062B609F0C5FF2368DA0705D52C4809F065
:10031000AFFD2C4B2C4A1A602C4B1B785B0609D581
:10032000284C294B22689A4204D1254809F0A0FDA7
:10033000002323600DF0D0F809F06EFC09F09CFB5F
:10034000FEE700BF0E20054030800440823F0400DD
:100350000100002B88ED00E0002008E0030000858C
:1003600002D0074000E007407815FF1FA8220100D7
:100370003007FF1F7815FF1F5420FF1F0002FF1FCB
:100380000000000000E400E064E400E008ED00E0AC
:10039000005006400040064001E007404480044011
:1003A0000000060204800440C010070010D0034083
:1003B00014D0034014E000E01FBF02000000202022
:1003C00042BA47601CE00340A5C3945A00F00740BE
:1003D000FFFFFFFFFFFFFFFFFFFFFFFFFFFFFFFF2D
:1003E000FFFFFFFFFFFFFFFFFFFFFFFFFFFFFFFF1D
:1003F000FFFFFFFFFFFFFFFFFFFFFFFFFFFFFFFF0D
:10040000FFFFFFFFFFFFFFFFFFFFFFFFDEF9FFFF23
:1004100010B5054C237833B9044B13B10448AFF33E
:1004200000800123237010BD7815FF1F000000001D
:10043000A4220100084B10B51BB108490848AFF3CE
:1004400000800848036803B910BD074B002BFBD0A0
:10045000BDE81040184700BF000000007C15FF1FDA
:10046000A42201007815FF1F0000000043680B70F4
:1004700043681B0A4B70C3888B70C379CB70836849
:100480000B7183681B0A4B7143898B71C37ACB71E3
:10049000082070470B7843604A7843EA02234360A0
:1004A0008A7843EA02434360CA7843EA02634360BE
:1004B0000B7983604A7943EA022383608A7943EAAD
:1004C00002438360CA7943EA02638360082070476D
:1004D00000487047F81701000048704708180100ED
:1004E000F0B50C460A788280064614F8010F002306
:1004F00042EA0022B2801A4614F8010F98400833ED
:10050000202B42EA0002F7D1971D062F58D901F19E
:10051000050E551D73464C1913F8010F03F8010C15
:10052000A342F9D100234B5518460D44C6F808E004
:1005300015F8014F84400830202843EA0403F7D11E
:10054000381D0344834209D909320A440446013460
:1005500012F8015F02F8015CA342F8D80138CF1805
:100560000024084407F8014C2246F06017F8015BAC
:1005700095400832202A44EA0504F7D1181D0444A6
:10058000A04209D203330B440246013213F8015F43
:1005900003F8015CA242F8D30D1901380844002386
:1005A00005F8013C3061A8786B780A5DED780104AC
:1005B00041EA0323134343EA0563201D7361F0BD41
:1005C000551D01F1050EADE7004870472C180100DC
:1005D00000487047481801000B78F0B403710023FD
:1005E00006460C461D4614F8012F9A400833202B6E
:1005F00045EA0205F7D1681D052801F1040708D96D
:100600002C1D3B460C4413F8012F03F8012C9C428F
:10061000F9D10D4400232B71B760F0BC704700BFC7
:10062000004870476C1801000048704780180100AE
:1006300000487047F41A010000487047A4180100F0
:1006400043680B701A0C10B41C0A1B0E4C708A7095
:10065000CB7083680B711C0A1A0C1B0E4C718A71CB
:10066000CB71C3680B72180A1A0C1B0E48728A727F
:100670000C20CB725DF8044B704700BF0A684260E3
:100680004A68826003468A68DA600C20704700BFBF
:1006900000487047C818010000487047E018010082
:1006A0000048704704190100004870471C190100F8
:1006B0000048704740190100004870475419010074
:1006C00043680B701A0C10B41C0A1B0E4C708A7015
:1006D000CB7083680B711C0A1A0C1B0E4C718A714B
:1006E000CB71C3680B72180A1A0C1B0E48728A72FF
:1006F0000C20CB725DF8044B704700BF0A68426063
:100700004A68826003468A68DA600C20704700BF3E
:1007100000487047781901000048704788190100A7
:1007200000487047AC19010000487047BC1901002F
:10073000F0B4094B86681B68C468026A074F084D0D
:1007400008492E6082B00C6001930198064B386016
:100750001A6002B0F0BC7047D81EFF1F3416FF1F8E
:10076000781DFF1F7C1DFF1F841CFF1F90F8F804DD
:10077000704700BF006A7047004870477819010051
:100780000048704788190100406B70470048704767
:100790004019010000487047541901000AF02ABDB1
:1007A00043682DE9F0470B7043681B0A4B70C38800
:1007B0008B70C379CB704368002B00F085800A46AC
:1007C00000250426C36853F8253013711C0C1F0A3A
:1007D0001B0E94715771D37143680135AB42344697
:1007E00002F1040206F10406ECD804F1080204F157
:1007F000050A04F1060904F1070804F1090C04F1E3
:100800000A0E04F10B0517460C3403698B55036976
:100810001B0A01F80A30438A01F80930C37C01F849
:1008200008300369F3B101EB070E754600228369B6
:1008300053F822300EF822301C0C1E0A1B0EAC702E
:100840006E70EB700369013293423C4605F104057A
:1008500007F10407EBD804F1050C04F1060EE51DC1
:100860003A460834C3698B54C3691B0A01F80C303B
:10087000C38B01F80E30C37F4B55C3690BB30F46D2
:1008800080460026D8F8243053F826000DF098FB57
:10089000B10005463A19002325FA03F00833202B4E
:1008A00002F8010BF8D1D8F824300434381959581B
:1008B0002A4609F0E9F8D8F81C300136B3422C4436
:1008C000E0D82046BDE8F087082217460C240B2507
:1008D0004FF00A0E4FF0090C4FF007084FF00609D1
:1008E0004FF0050A042690E770B503790B700646B1
:1008F00080680D460DF064FB2A460446002324FA66
:1009000003F10833202B02F8011FF8D1B168681DEC
:10091000224609F0B9F8601D70BD00BFF8B58388A4
:100920000B7083881B0A4B70064680680D460DF0DD
:1009300047FB030E010A020C6B71A8702A71E97063
:1009400002460446B168A81D09F09EF8F0680DF053
:1009500037FB611D024629440634002322FA03F0C6
:100960000833202B01F8010FF8D104342819F1685D
:10097000144409F089F830690DF022FB2A19074662
:10098000002327FA03F10833202B02F8011BF8D1CA
:10099000043428193A46316909F076F83819736930
:1009A0002B540544190A1A0C1B0E6970AA70EB70BF
:1009B0000430F8BD08460AF007BD00BF2DE9F04F2E
:1009C00043680C689C4283B005460E4600F2B38033
:1009D0006C60002C00F0B88005F1080C334600274D
:1009E0004FF0040E9C795A79197993F80780E868DA
:1009F000240444EA02220A4342EA0862AA60DCF8BC
:100A0000002040F827206A680137BA42714603F196
:100A100004030EF1040EE5D801F1080847464B1D0A
:100A2000881DCA1D01F1090A01F10A0B01F10B0928
:100A300001F10C04305CF35C16F80E1016F802E0BD
:100A40002A69000440EA03230B4343EA0E639342FE
:100A500000F290802B613BB305F1140CF3194FF0B9
:100A6000000E9C785A78197893F80380A8692404BA
:100A700044EA02220A4342EA08626A61DCF8002082
:100A800040F82E202A690EF1010E72453C4603F112
:100A9000040307F10407E4D804F1050A04F1060B86
:100AA00004F10709B846083416F80B2016F80A00B6
:100AB00016F8083016F80970E969120442EA0022B3
:100AC000134343EA07678F424ED8EF617FB3002795
:100AD000BC4605F1200E00231946301910F8012BF1
:100AE0009A400833202B41EA0201F7D104F10408AF
:100AF0004144884509D2E31C33444246013213F88D
:100B0000010F03F8010C8A42F8D3721808F1FF387C
:100B100002F801CC06EB08032B626A6ADEF80030AB
:100B200042F82730EB690137BB420C46D3D8204648
:100B300003B0BDE8F08FA100C0680DF007F86C604D
:100B4000E860002C7FF448AF4FF0080847460C24BB
:100B50004FF00B094FF00A0B4FF0090A072206204D
:100B600005234FF0040E65E7B900686A0CF0EEFF4C
:100B70006862AAE79900A86901930CF0E7FF019B5E
:100B8000A86167E710B590ED021AD0ED030A90ED69
:100B9000010A04460F4808F067FF94ED021AD4EDED
:100BA000030A94ED010A0C4808F05EFF94ED021A66
:100BB000D4ED030A94ED010A084808F055FF94EDBE
:100BC000021AD4ED030A94ED010A0548BDE810406D
:100BD00008F04ABFD01CFF1F201DFF1F5016FF1F2B
:100BE000E016FF1F03460868186148685861896865
:100BF000DA69996103F10C00104700BFD0ED017A6A
:100C000017EE903AC3F3C752F0B4002A71D002F540
:100C1000607215016DB2C2F30712F5EEC07AC3F32C
:100C2000C344F1EE10FA45EA04054FEA43174FF0CA
:100C300000044FEAE30648BF62F07F02DB124B710B
:100C4000CA718D710C704C708C70CF700E71D0EDBC
:100C5000027A17EE903AC3F3C752002A4DD002F53C
:100C6000607215016DB2C2F30712F5EEC07AC3F3DC
:100C7000C344F1EE10FA45EA04054FEA43174FF07A
:100C800000044FEAE30648BF62F07F02DB124B73B9
:100C9000CA738D730C724C728C72CF720E73D0ED5E
:100CA000037A17EE903AC3F3C75222B302F560728B
:100CB000140164B2C2F30712F5EEC07AC3F3C34065
:100CC000F1EE10FA44EA00044FEA43164FF0000038
:100CD0004FEAE30548BF62F07F02DB128C750874AF
:100CE00048748874CE740D7518204B75CA75F0BCA5
:100CF0007047154691E71446DEE71546B5E700BF95
:100D0000CA78520970B442610346087942EAC002C7
:100D10005A61487942EAC02058618A79D20402F4C3
:100D2000F00202435A61CD798E792C0104F4FE64FD
:100D300054EA161403F10C0005D0A4F5607442EADD
:100D4000C4525A61CD7925F07F0542EA05625A61A5
:100D5000CA7A52099A610C7B42EAC4029A614C7BBE
:100D600042EAC4249C618A7BD20402F4F00222434A
:100D70009A61CD7B8E7B2C0104F4FE6454EA161438
:100D800005D0A4F5607442EAC4529A61CD7B25F087
:100D90007F0542EA05629A61CA7C5209DA610C7DDC
:100DA00042EAC402DA614C7D42EAC424DC618A7DF5
:100DB000D20402F4F0022243DA61CD7D8E7D2C0153
:100DC00004F4FE6454EA161405D0A4F5607442EAF3
:100DD000C452DA61CD7D25F07F0542EA0562DA6111
:100DE000CA7E52095A620C7F42EAC4025A624C7FA0
:100DF00042EAC4245C628A7FD20402F4F0022243F5
:100E00005A62CD7F8E7F2C0104F4FE6454EA1614DE
:100E100005D0A4F5607442EAC4525A62CD7F25F031
:100E20007F0542EA05625A6291F8232052099A62CC
:100E300091F8244042EAC4029A6291F8254042EABD
:100E4000C4249C6291F82620D20402F4F0022243CA
:100E50009A6291F8275091F826602C0104F4FE6400
:100E600054EA161406D0A4F5607442EAC4529A6299
:100E700091F8275025F07F0542EA05629A6291F8C1
:100E80002B205209DA6291F82C4042EAC402DA625D
:100E900091F82D4042EAC424DC6291F82E20D2045D
:100EA00002F4F0022243DA6291F82F5091F82E609A
:100EB0002C0104F4FE6454EA161406D0A4F5607400
:100EC00042EAC452DA6291F82F5025F07F0542EAD7
:100ED0000562DA6270BC1B6B184700BFCB785B09F8
:100EE00030B483600A7943EAC20383604A7943EAF3
:100EF000C22282608B79DB0403F4F0031343836026
:100F0000CC798D79220102F4FE6252EA151205D0E5
:100F1000A2F5607243EAC2538360CC7924F07F0467
:100F200043EA04638360CB7A5B09C3600A7B43EACC
:100F3000C203C3604A7B43EAC222C2608B7BDB04EC
:100F400003F4F0031343C360CC7B8D7B220102F4D6
:100F5000FE6252EA151205D0A2F5607243EAC2534E
:100F6000C360CC7B24F07F0443EA0463C360CB7C82
:100F70005B0903610A7D43EAC20303614A7D43EAD8
:100F8000C22202618B7DDB0403F4F003134303618F
:100F9000CC7D8D7D220102F4FE6252EA151205D04D
:100FA000A2F5607243EAC2530361CC7D24F07F0452
:100FB00043EA04630361CB7E5B0983610A7F43EAF2
:100FC000C20383614A7F43EAC22282618B7FDB04D2
:100FD00003F4F00313438361CC7F8D7F220102F47D
:100FE000FE6252EA151205D0A2F5607243EAC253BE
:100FF0008361CC7F24F07F0443EA0463836191F82A
:1010000023305B09C36191F8242043EAC203C36122
:1010100091F8252043EAC222C26191F82630DB0410
:1010200003F4F0031343C36191F8274091F826506D
:10103000220102F4FE6252EA151206D0A2F5607295
:1010400043EAC253C36191F8274024F07F0443EA86
:101050000463C36191F82B305B09036291F82C2083
:1010600043EAC203036291F82D2043EAC2220262DE
:1010700091F82E30DB0403F4F0031343036291F87C
:101080002F4091F82E50220102F4FE6252EA15120E
:1010900006D0A2F5607243EAC253036291F82F4072
:1010A00024F07F0443EA0463036230BC30207047BD
:1010B000CB785B0930B443600A7943EAC2034360EA
:1010C0004A7943EAC22242608B79DB0403F4F003DD
:1010D00013434360CC798D79220102F4FE6252EA17
:1010E000151205D0A2F5607243EAC2534360CC7971
:1010F00024F07F0443EA04634360CB7A5B09836096
:101100000A7B43EAC20383604A7B43EAC2228260CD
:101110008B7BDB0403F4F00313438360CC7B8D7B78
:10112000220102F4FE6252EA151205D0A2F56072A5
:1011300043EAC2538360CC7B24F07F0443EA046318
:101140008360CB7C5B09C3600A7D43EAC203C36052
:101150004A7D43EAC222C2608B7DDB0403F4F003C4
:101160001343C360CC7D8D7D220102F4FE6252EAFE
:10117000151205D0A2F5607243EAC253C360CC7D5C
:1011800024F07F0443EA0463C36030BC1820704736
:10119000D0ED027A17EE903AC3F3C752F0B4002AAA
:1011A00000F0FD8002F5607215016DB2C2F3071206
:1011B000F5EEC07AC3F3C344F1EE10FA45EA040534
:1011C0004FEA43174FF000044FEAE30648BF62F0CE
:1011D0007F02DB124B71CA718D710C704C708C7078
:1011E000CF700E71D0ED037A17EE903AC3F3C75269
:1011F000002A00F0DE8002F5607215016DB2C2F3C4
:101200000712F5EEC07AC3F3C344F1EE10FA45EAD3
:1012100004054FEA43174FF000044FEAE30648BFC6
:1012200062F07F02DB124B73CA738D730C724C72C7
:101230008C72CF720E73D0ED047A17EE903AC3F32E
:10124000C752002A00F0B38002F5607215016DB23A
:10125000C2F30712F5EEC07AC3F3C344F1EE10FAFD
:1012600045EA04054FEA43174FF000044FEAE3064E
:1012700048BF62F07F02DB124B75CA758D750C7426
:101280004C748C74CF740E75D0ED067A17EE903ACC
:10129000C3F3C752002A00F0888002F5607215017E
:1012A0006DB2C2F30712F5EEC07AC3F3C344F1EE98
:1012B00010FA45EA04054FEA43174FF000044FEADD
:1012C000E30648BF62F07F02DB124B77CA778D7767
:1012D0000C764C768C76CF760E77D0ED077A17EEBB
:1012E000903AC3F3C752002A5DD002F5607215012F
:1012F0006DB2C2F30712F5EEC07AC3F3C344F1EE48
:1013000010FA45EA04054FEA43174FF000044FEA8C
:10131000E30648BF62F07F02DB1281F8253081F8D6
:10132000272081F8265081F8204081F8214081F85B
:10133000224081F8237081F82460D0ED087A17EEFE
:10134000903AC3F3C75262B302F56072140164B2FB
:10135000C2F30712F5EEC07AC3F3C340F1EE10FA00
:1013600044EA00044FEA43164FF000004FEAE30559
:1013700048BF62F07F02DB1281F82E4081F828001E
:1013800081F8290081F82A0081F82B6081F82C501F
:10139000302081F82D3081F82F20F0BC70471546A1
:1013A00006E71446D6E71546A5E715467BE715463A
:1013B00050E7154625E700BFD0ED027A17EE903AC8
:1013C000C3F3C752F0B4002A00F0908102F56072B6
:1013D00015016DB2C2F30712F5EEC07AC3F3C34430
:1013E000F1EE10FA45EA04054FEA43174FF0000406
:1013F0004FEAE30648BF62F07F02DB124B71CA710D
:101400008D710C704C708C70CF700E71D0ED037AB2
:1014100017EE903AC3F3C752002A00F0778102F525
:10142000607215016DB2C2F30712F5EEC07AC3F314
:10143000C344F1EE10FA45EA04054FEA43174FF0B2
:1014400000044FEAE30648BF62F07F02DB124B73F1
:10145000CA738D730C724C728C72CF720E73D0ED96
:10146000047A17EE903AC3F3C752002A00F04C8179
:1014700002F5607215016DB2C2F30712F5EEC07A83
:10148000C3F3C344F1EE10FA45EA04054FEA4317EB
:101490004FF000044FEAE30648BF62F07F02DB1220
:1014A0004B75CA758D750C744C748C74CF740E7535
:1014B000D0ED067A17EE903AC3F3C752002A00F037
:1014C000218102F5607215016DB2C2F30712F5EECB
:1014D000C07AC3F3C344F1EE10FA45EA04054FEABB
:1014E00043174FF000044FEAE30648BF62F07F0263
:1014F000DB124B77CA778D770C764C768C76CF766D
:101500000E77D0ED077A17EE903AC3F3C752002A50
:1015100000F0F68002F5607215016DB2C2F3071299
:10152000F5EEC07AC3F3C344F1EE10FA45EA0405C0
:101530004FEA43174FF000044FEAE30648BF62F05A
:101540007F02DB1281F8253081F8272081F82650B0
:1015500081F8204081F8214081F8224081F82370F1
:1015600081F82460D0ED087A17EE903AC3F3C752A1
:10157000002A00F0C38002F5607215016DB2C2F35B
:101580000712F5EEC07AC3F3C344F1EE10FA45EA50
:1015900004054FEA43174FF000044FEAE30648BF43
:1015A00062F07F02DB1281F82D3081F82F2081F864
:1015B0002E5081F8284081F8294081F82A4081F88E
:1015C0002B7081F82C60D0ED0A7A17EE903AC3F3B5
:1015D000C752002A00F0908002F5607215016DB2CA
:1015E000C2F30712F5EEC07AC3F3C344F1EE10FA6A
:1015F00045EA04054FEA43174FF000044FEAE306BB
:1016000048BF62F07F02DB1281F8353081F8372065
:1016100081F8365081F8304081F8314081F832400D
:1016200081F8337081F83460D0ED0B7A17EE903A80
:10163000C3F3C752002A5DD002F5607215016DB286
:10164000C2F30712F5EEC07AC3F3C344F1EE10FA09
:1016500045EA04054FEA43174FF000044FEAE3065A
:1016600048BF62F07F02DB1281F83D3081F83F20F5
:1016700081F83E5081F8384081F8394081F83A408D
:1016800081F83B7081F83C60D0ED0C7A17EE903A0F
:10169000C3F3C75262B302F56072140164B2C2F3BD
:1016A0000712F5EEC07AC3F3C340F1EE10FA44EA34
:1016B00000044FEA43164FF000004FEAE30548BF2D
:1016C00062F07F02DB1281F8464081F8400081F829
:1016D000410081F8420081F8436081F8445048207D
:1016E00081F8453081F84720F0BC7047154673E615
:1016F0001446D6E71546A5E7154673E7154640E7B5
:1017000015460DE71546E2E61546B7E615468CE6A2
:10171000CB785B0930B483600A7943EAC203836003
:101720004A7943EAC22282608B79DB0403F4F00336
:1017300013438360CC798D79220102F4FE6252EA70
:10174000151205D0A2F5607243EAC2538360CC79CA
:1017500024F07F0443EA04638360CB7A5B09C360AF
:101760000A7B43EAC203C3604A7B43EAC222C260E7
:101770008B7BDB0403F4F0031343C360CC7B8D7BD2
:10178000220102F4FE6252EA151205D0A2F560723F
:1017900043EAC253C360CC7B24F07F0443EA046372
:1017A000C360CB7C5B0903610A7D43EAC20303612A
:1017B0004A7D43EAC22202618B7DDB0403F4F0031D
:1017C00013430361CC7D8D7D220102F4FE6252EA57
:1017D000151205D0A2F5607243EAC2530361CC7DB5
:1017E00024F07F0443EA04630361CB7E5B098361D9
:1017F0000A7F43EAC20383614A7F43EAC2228261CD
:101800008B7FDB0403F4F00313438361CC7F8D7F74
:10181000220102F4FE6252EA151205D0A2F56072AE
:1018200043EAC2538361CC7F24F07F0443EA04631C
:10183000836191F823305B09C36191F8242043EA66
:10184000C203C36191F8252043EAC222C26191F824
:101850002630DB0403F4F0031343C36191F82740FF
:1018600091F82650220102F4FE6252EA151206D0C7
:10187000A2F5607243EAC253C36191F8274024F095
:101880007F0443EA0463C36191F82B305B09036270
:1018900091F82C2043EAC203036291F82D2043EA19
:1018A000C222026291F82E30DB0403F4F0031343EA
:1018B000036291F82F4091F82E50220102F4FE624B
:1018C00052EA151206D0A2F5607243EAC2530362CF
:1018D00091F82F4024F07F0443EA0463036291F8F7
:1018E00033305B09836291F8342043EAC203836298
:1018F00091F8352043EAC222826291F83630DB0447
:1019000003F4F0031343836291F8374091F83650A3
:10191000220102F4FE6252EA151206D0A2F56072AC
:1019200043EAC253836291F8374024F07F0443EACC
:101930000463836291F83B305B09C36291F83C20F9
:1019400043EAC203C36291F83D2043EAC222C26265
:1019500091F83E30DB0403F4F0031343C36291F8C3
:101960003F4091F83E50220102F4FE6252EA151205
:1019700006D0A2F5607243EAC253C36291F83F40B9
:1019800024F07F0443EA0463C36291F843305B09A7
:10199000036391F8442043EAC203036391F84520AE
:1019A00043EAC222026391F84630DB0403F4F003F9
:1019B0001343036391F8474091F84650220102F423
:1019C000FE6252EA151206D0A2F5607243EAC253D3
:1019D000036391F8474024F07F0443EA0463036300
:1019E00030BC4820704700BFF0B585B0364A019240
:1019F0000368364D039503228DF808201B6834498F
:101A00008B425AD100233821044680F8232205F165
:101A1000300E80F8241280F8253280F8263280F8C3
:101A2000273200F50A772E460FCE7645386079606A
:101A3000BA60FB60354607F11007F4D103CD0022F0
:101A40007960C2234FF0FF0EFE263D250721386046
:101A500084F8203284F81CE284F81D6284F81E5257
:101A600084F81F2284F8222284F8211204F2212310
:101A700004F25F2001E013F8011F83420A44FAD107
:101A8000D243144E84F8602204F21B2504F5187723
:101A900003E009F099FCBD420BD0626815F8011F04
:101AA00013681B68B3420846F3D010469847BD42FE
:101AB000F3D14FF0FF3005B0F0BD01AA07219847E0
:101AC0004FF0FF3005B0F0BD14170100E019010020
:101AD000A93B0000B5090000214B10B41A68136837
:101AE000506819780478507A137A044201EA0301A5
:101AF0001BD0937A03F0030309B143F0040343F0CE
:101B000008039910013B91720D2B0BD8DFE803F00D
:101B100021071B070A152121150A071B0721D36876
:101B2000013BD3605DF8044B7047937A03F00303E5
:101B30000029E6D043F00403E3E7D3685DF8044BE3
:101B4000023BD3607047D3685DF8044B0233D36027
:101B50007047D3685DF8044B0133D360704700BF12
:101B6000A41DFF1F214B10B45A68136850681978E0
:101B70000478507A137A044201EA03011BD0937A65
:101B800003F0030309B143F0040343F00803991081
:101B9000013B91720D2B0BD8DFE803F021071B07E7
:101BA0000A152121150A071B0721D368013BD360C1
:101BB0005DF8044B7047937A03F003030029E6D0E5
:101BC00043F00403E3E7D3685DF8044B023BD360C2
:101BD0007047D3685DF8044B0233D3607047D36815
:101BE0005DF8044B0133D360704700BFA41DFF1F95
:101BF000214B10B49A681368506819780478507AA9
:101C0000137A044201EA03011BD0937A03F0030321
:101C100009B143F0040343F008039910013B9172AA
:101C20000D2B0BD8DFE803F021071B070A15212134
:101C3000150A071B0721D368013BD3605DF8044BED
:101C40007047937A03F003030029E6D043F00403BE
:101C5000E3E7D3685DF8044B023BD3607047D36879
:101C60005DF8044B0233D3607047D3685DF8044BD2
:101C70000133D360704700BFA41DFF1F214B10B478
:101C8000DA681368506819780478507A137A044235
:101C900001EA03011BD0937A03F0030309B143F077
:101CA000040343F008039910013B91720D2B0BD8EC
:101CB000DFE803F021071B070A152121150A071B7E
:101CC0000721D368013BD3605DF8044B7047937ADA
:101CD00003F003030029E6D043F00403E3E7D368ED
:101CE0005DF8044B023BD3607047D3685DF8044B4A
:101CF0000233D3607047D3685DF8044B0133D3607F
:101D0000704700BFA41DFF1F214B10B41A69136850
:101D1000506819780478507A137A044201EA030172
:101D20001BD0937A03F0030309B143F0040343F09B
:101D300008039910013B91720D2B0BD8DFE803F0DB
:101D400021071B070A152121150A071B0721D36844
:101D5000013BD3605DF8044B7047937A03F00303B3
:101D60000029E6D043F00403E3E7D3685DF8044BB1
:101D7000023BD3607047D3685DF8044B0233D360F5
:101D80007047D3685DF8044B0133D360704700BFE0
:101D9000A41DFF1F214B10B45A69136850681978AD
:101DA0000478507A137A044201EA03011BD0937A33
:101DB00003F0030309B143F0040343F0080399104F
:101DC000013B91720D2B0BD8DFE803F021071B07B5
:101DD0000A152121150A071B0721D368013BD3608F
:101DE0005DF8044B7047937A03F003030029E6D0B3
:101DF00043F00403E3E7D3685DF8044B023BD36090
:101E00007047D3685DF8044B0233D3607047D368E2
:101E10005DF8044B0133D360704700BFA41DFF1F62
:101E2000214B10B49A691368506819780478507A75
:101E3000137A044201EA03011BD0937A03F00303EF
:101E400009B143F0040343F008039910013B917278
:101E50000D2B0BD8DFE803F021071B070A15212102
:101E6000150A071B0721D368013BD3605DF8044BBB
:101E70007047937A03F003030029E6D043F004038C
:101E8000E3E7D3685DF8044B023BD3607047D36847
:101E90005DF8044B0233D3607047D3685DF8044BA0
:101EA0000133D360704700BFA41DFF1F214B10B446
:101EB000DA691368506819780478507A137A044202
:101EC00001EA03011BD0937A03F0030309B143F045
:101ED000040343F008039910013B91720D2B0BD8BA
:101EE000DFE803F021071B070A152121150A071B4C
:101EF0000721D368013BD3605DF8044B7047937AA8
:101F000003F003030029E6D043F00403E3E7D368BA
:101F10005DF8044B023BD3607047D3685DF8044B17
:101F20000233D3607047D3685DF8044B0133D3604C
:101F3000704700BFA41DFF1F214B10B41A6A13681D
:101F4000506819780478507A137A044201EA030140
:101F50001BD0937A03F0030309B143F0040343F069
:101F600008039910013B91720D2B0BD8DFE803F0A9
:101F700021071B070A152121150A071B0721D36812
:101F8000013BD3605DF8044B7047937A03F0030381
:101F90000029E6D043F00403E3E7D3685DF8044B7F
:101FA000023BD3607047D3685DF8044B0233D360C3
:101FB0007047D3685DF8044B0133D360704700BFAE
:101FC000A41DFF1F214B10B45A6A1368506819787A
:101FD0000478507A137A044201EA03011BD0937A01
:101FE00003F0030309B143F0040343F0080399101D
:101FF000013B91720D2B0BD8DFE803F021071B0783
:102000000A152121150A071B0721D368013BD3605C
:102010005DF8044B7047937A03F003030029E6D080
:1020200043F00403E3E7D3685DF8044B023BD3605D
:102030007047D3685DF8044B0233D3607047D368B0
:102040005DF8044B0133D360704700BFA41DFF1F30
:10205000214B10B49A6A1368506819780478507A42
:10206000137A044201EA03011BD0937A03F00303BD
:1020700009B143F0040343F008039910013B917246
:102080000D2B0BD8DFE803F021071B070A152121D0
:10209000150A071B0721D368013BD3605DF8044B89
:1020A0007047937A03F003030029E6D043F004035A
:1020B000E3E7D3685DF8044B023BD3607047D36815
:1020C0005DF8044B0233D3607047D3685DF8044B6E
:1020D0000133D360704700BFA41DFF1F214B10B414
:1020E000DA6A1368506819780478507A137A0442CF
:1020F00001EA03011BD0937A03F0030309B143F013
:10210000040343F008039910013B91720D2B0BD887
:10211000DFE803F021071B070A152121150A071B19
:102120000721D368013BD3605DF8044B7047937A75
:1021300003F003030029E6D043F00403E3E7D36888
:102140005DF8044B023BD3607047D3685DF8044BE5
:102150000233D3607047D3685DF8044B0133D3601A
:10216000704700BFA41DFF1F214B10B41A6B1368EA
:10217000506819780478507A137A044201EA03010E
:102180001BD0937A03F0030309B143F0040343F037
:1021900008039910013B91720D2B0BD8DFE803F077
:1021A00021071B070A152121150A071B0721D368E0
:1021B000013BD3605DF8044B7047937A03F003034F
:1021C0000029E6D043F00403E3E7D3685DF8044B4D
:1021D000023BD3607047D3685DF8044B0233D36091
:1021E0007047D3685DF8044B0133D360704700BF7C
:1021F000A41DFF1F214B10B45A6B13685068197847
:102200000478507A137A044201EA03011BD0937ACE
:1022100003F0030309B143F0040343F008039910EA
:10222000013B91720D2B0BD8DFE803F021071B0750
:102230000A152121150A071B0721D368013BD3602A
:102240005DF8044B7047937A03F003030029E6D04E
:1022500043F00403E3E7D3685DF8044B023BD3602B
:102260007047D3685DF8044B0233D3607047D3687E
:102270005DF8044B0133D360704700BFA41DFF1FFE
:10228000214B10B49A6B1368506819780478507A0F
:10229000137A044201EA03011BD0937A03F003038B
:1022A00009B143F0040343F008039910013B917214
:1022B0000D2B0BD8DFE803F021071B070A1521219E
:1022C000150A071B0721D368013BD3605DF8044B57
:1022D0007047937A03F003030029E6D043F0040328
:1022E000E3E7D3685DF8044B023BD3607047D368E3
:1022F0005DF8044B0233D3607047D3685DF8044B3C
:102300000133D360704700BFA41DFF1F214B10B4E1
:10231000DA6B1368506819780478507A137A04429B
:1023200001EA03011BD0937A03F0030309B143F0E0
:10233000040343F008039910013B91720D2B0BD855
:10234000DFE803F021071B070A152121150A071BE7
:102350000721D368013BD3605DF8044B7047937A43
:1023600003F003030029E6D043F00403E3E7D36856
:102370005DF8044B023BD3607047D3685DF8044BB3
:102380000233D3607047D3685DF8044B0133D360E8
:10239000704700BFA41DFF1F214B10B41A6C1368B7
:1023A000506819780478507A137A044201EA0301DC
:1023B0001BD0937A03F0030309B143F0040343F005
:1023C00008039910013B91720D2B0BD8DFE803F045
:1023D00021071B070A152121150A071B0721D368AE
:1023E000013BD3605DF8044B7047937A03F003031D
:1023F0000029E6D043F00403E3E7D3685DF8044B1B
:10240000023BD3607047D3685DF8044B0233D3605E
:102410007047D3685DF8044B0133D360704700BF49
:10242000A41DFF1F214B10B45A6C13685068197813
:102430000478507A137A044201EA03011BD0937A9C
:1024400003F0030309B143F0040343F008039910B8
:10245000013B91720D2B0BD8DFE803F021071B071E
:102460000A152121150A071B0721D368013BD360F8
:102470005DF8044B7047937A03F003030029E6D01C
:1024800043F00403E3E7D3685DF8044B023BD360F9
:102490007047D3685DF8044B0233D3607047D3684C
:1024A0005DF8044B0133D360704700BFA41DFF1FCC
:1024B000214B10B49A6C1368506819780478507ADC
:1024C000137A044201EA03011BD0937A03F0030359
:1024D00009B143F0040343F008039910013B9172E2
:1024E0000D2B0BD8DFE803F021071B070A1521216C
:1024F000150A071B0721D368013BD3605DF8044B25
:102500007047937A03F003030029E6D043F00403F5
:10251000E3E7D3685DF8044B023BD3607047D368B0
:102520005DF8044B0233D3607047D3685DF8044B09
:102530000133D360704700BFA41DFF1F214B10B4AF
:10254000DA6C1368506819780478507A137A044268
:1025500001EA03011BD0937A03F0030309B143F0AE
:10256000040343F008039910013B91720D2B0BD823
:10257000DFE803F021071B070A152121150A071BB5
:102580000721D368013BD3605DF8044B7047937A11
:1025900003F003030029E6D043F00403E3E7D36824
:1025A0005DF8044B023BD3607047D3685DF8044B81
:1025B0000233D3607047D3685DF8044B0133D360B6
:1025C000704700BFA41DFF1F214B10B41A6D136884
:1025D000506819780478507A137A044201EA0301AA
:1025E0001BD0937A03F0030309B143F0040343F0D3
:1025F00008039910013B91720D2B0BD8DFE803F013
:1026000021071B070A152121150A071B0721D3687B
:10261000013BD3605DF8044B7047937A03F00303EA
:102620000029E6D043F00403E3E7D3685DF8044BE8
:10263000023BD3607047D3685DF8044B0233D3602C
:102640007047D3685DF8044B0133D360704700BF17
:10265000A41DFF1F214B10B45A6D136850681978E0
:102660000478507A137A044201EA03011BD0937A6A
:1026700003F0030309B143F0040343F00803991086
:10268000013B91720D2B0BD8DFE803F021071B07EC
:102690000A152121150A071B0721D368013BD360C6
:1026A0005DF8044B7047937A03F003030029E6D0EA
:1026B00043F00403E3E7D3685DF8044B023BD360C7
:1026C0007047D3685DF8044B0233D3607047D3681A
:1026D0005DF8044B0133D360704700BFA41DFF1F9A
:1026E000214B10B49A6D1368506819780478507AA9
:1026F000137A044201EA03011BD0937A03F0030327
:1027000009B143F0040343F008039910013B9172AF
:102710000D2B0BD8DFE803F021071B070A15212139
:10272000150A071B0721D368013BD3605DF8044BF2
:102730007047937A03F003030029E6D043F00403C3
:10274000E3E7D3685DF8044B023BD3607047D3687E
:102750005DF8044B0233D3607047D3685DF8044BD7
:102760000133D360704700BFA41DFF1F214B10B47D
:10277000DA6D1368506819780478507A137A044235
:1027800001EA03011BD0937A03F0030309B143F07C
:10279000040343F008039910013B91720D2B0BD8F1
:1027A000DFE803F021071B070A152121150A071B83
:1027B0000721D368013BD3605DF8044B7047937ADF
:1027C00003F003030029E6D043F00403E3E7D368F2
:1027D0005DF8044B023BD3607047D3685DF8044B4F
:1027E0000233D3607047D3685DF8044B0133D36084
:1027F000704700BFA41DFF1F214B10B41A6E136851
:10280000506819780478507A137A044201EA030177
:102810001BD0937A03F0030309B143F0040343F0A0
:1028200008039910013B91720D2B0BD8DFE803F0E0
:1028300021071B070A152121150A071B0721D36849
:10284000013BD3605DF8044B7047937A03F00303B8
:102850000029E6D043F00403E3E7D3685DF8044BB6
:10286000023BD3607047D3685DF8044B0233D360FA
:102870007047D3685DF8044B0133D360704700BFE5
:10288000A41DFF1F214B10B45A6E136850681978AD
:102890000478507A137A044201EA03011BD0937A38
:1028A00003F0030309B143F0040343F00803991054
:1028B000013B91720D2B0BD8DFE803F021071B07BA
:1028C0000A152121150A071B0721D368013BD36094
:1028D0005DF8044B7047937A03F003030029E6D0B8
:1028E00043F00403E3E7D3685DF8044B023BD36095
:1028F0007047D3685DF8044B0233D3607047D368E8
:102900005DF8044B0133D360704700BFA41DFF1F67
:10291000214B10B49A6E1368506819780478507A75
:10292000137A044201EA03011BD0937A03F00303F4
:1029300009B143F0040343F008039910013B91727D
:102940000D2B0BD8DFE803F021071B070A15212107
:10295000150A071B0721D368013BD3605DF8044BC0
:102960007047937A03F003030029E6D043F0040391
:10297000E3E7D3685DF8044B023BD3607047D3684C
:102980005DF8044B0233D3607047D3685DF8044BA5
:102990000133D360704700BFA41DFF1F214B10B44B
:1029A000DA6E1368506819780478507A137A044202
:1029B00001EA03011BD0937A03F0030309B143F04A
:1029C000040343F008039910013B91720D2B0BD8BF
:1029D000DFE803F021071B070A152121150A071B51
:1029E0000721D368013BD3605DF8044B7047937AAD
:1029F00003F003030029E6D043F00403E3E7D368C0
:102A00005DF8044B023BD3607047D3685DF8044B1C
:102A10000233D3607047D3685DF8044B0133D36051
:102A2000704700BFA41DFF1F214B10B41A6F13681D
:102A3000506819780478507A137A044201EA030145
:102A40001BD0937A03F0030309B143F0040343F06E
:102A500008039910013B91720D2B0BD8DFE803F0AE
:102A600021071B070A152121150A071B0721D36817
:102A7000013BD3605DF8044B7047937A03F0030386
:102A80000029E6D043F00403E3E7D3685DF8044B84
:102A9000023BD3607047D3685DF8044B0233D360C8
:102AA0007047D3685DF8044B0133D360704700BFB3
:102AB000A41DFF1F214B10B45A6F1368506819787A
:102AC0000478507A137A044201EA03011BD0937A06
:102AD00003F0030309B143F0040343F00803991022
:102AE000013B91720D2B0BD8DFE803F021071B0788
:102AF0000A152121150A071B0721D368013BD36062
:102B00005DF8044B7047937A03F003030029E6D085
:102B100043F00403E3E7D3685DF8044B023BD36062
:102B20007047D3685DF8044B0233D3607047D368B5
:102B30005DF8044B0133D360704700BFA41DFF1F35
:102B4000214B10B49A6F1368506819780478507A42
:102B5000137A044201EA03011BD0937A03F00303C2
:102B600009B143F0040343F008039910013B91724B
:102B70000D2B0BD8DFE803F021071B070A152121D5
:102B8000150A071B0721D368013BD3605DF8044B8E
:102B90007047937A03F003030029E6D043F004035F
:102BA000E3E7D3685DF8044B023BD3607047D3681A
:102BB0005DF8044B0233D3607047D3685DF8044B73
:102BC0000133D360704700BFA41DFF1F214B10B419
:102BD000DA6F1368506819780478507A137A0442CF
:102BE00001EA03011BD0937A03F0030309B143F018
:102BF000040343F008039910013B91720D2B0BD88D
:102C0000DFE803F021071B070A152121150A071B1E
:102C10000721D368013BD3605DF8044B7047937A7A
:102C200003F003030029E6D043F00403E3E7D3688D
:102C30005DF8044B023BD3607047D3685DF8044BEA
:102C40000233D3607047D3685DF8044B0133D3601F
:102C5000704700BFA41DFF1F214B10B4D3F8802084
:102C60001368506819780478507A137A044201EA9C
:102C700003011BD0937A03F0030309B143F004036B
:102C800043F008039910013B91720D2B0BD8DFE83C
:102C900003F021071B070A152121150A071B07212D
:102CA000D368013BD3605DF8044B7047937A03F01F
:102CB00003030029E6D043F00403E3E7D3685DF89B
:102CC000044B023BD3607047D3685DF8044B02337A
:102CD000D3607047D3685DF8044B0133D36070470D
:102CE000A41DFF1F214B10B4D3F884201368506833
:102CF00019780478507A137A044201EA03011BD050
:102D0000937A03F0030309B143F0040343F008038B
:102D10009910013B91720D2B0BD8DFE803F02107CE
:102D20001B070A152121150A071B0721D368013B40
:102D3000D3605DF8044B7047937A03F003030029D6
:102D4000E6D043F00403E3E7D3685DF8044B023BAD
:102D5000D3607047D3685DF8044B0233D36070478B
:102D6000D3685DF8044B0133D3607047A41DFF1F87
:102D7000214B10B4D3F88820136850681978047870
:102D8000507A137A044201EA03011BD0937A03F0CC
:102D9000030309B143F0040343F008039910013B16
:102DA00091720D2B0BD8DFE803F021071B070A15E2
:102DB0002121150A071B0721D368013BD3605DF869
:102DC000044B7047937A03F003030029E6D043F0E5
:102DD0000403E3E7D3685DF8044B023BD36070471C
:102DE000D3685DF8044B0233D3607047D3685DF855
:102DF000044B0133D3607047A41DFF1F214B10B457
:102E0000D3F88C201368506819780478507A137AB4
:102E1000044201EA03011BD0937A03F0030309B1D2
:102E200043F0040343F008039910013B91720D2B0A
:102E30000BD8DFE803F021071B070A152121150A2B
:102E4000071B0721D368013BD3605DF8044B704733
:102E5000937A03F003030029E6D043F00403E3E789
:102E6000D3685DF8044B023BD3607047D3685DF8CC
:102E7000044B0233D3607047D3685DF8044B0133D1
:102E8000D3607047A41DFF1F214B10B4D3F89020CE
:102E90001368506819780478507A137A044201EA6A
:102EA00003011BD0937A03F0030309B143F0040339
:102EB00043F008039910013B91720D2B0BD8DFE80A
:102EC00003F021071B070A152121150A071B0721FB
:102ED000D368013BD3605DF8044B7047937A03F0ED
:102EE00003030029E6D043F00403E3E7D3685DF869
:102EF000044B023BD3607047D3685DF8044B023348
:102F0000D3607047D3685DF8044B0133D3607047DA
:102F1000A41DFF1F214B10B4D3F8942013685068F0
:102F200019780478507A137A044201EA03011BD01D
:102F3000937A03F0030309B143F0040343F0080359
:102F40009910013B91720D2B0BD8DFE803F021079C
:102F50001B070A152121150A071B0721D368013B0E
:102F6000D3605DF8044B7047937A03F003030029A4
:102F7000E6D043F00403E3E7D3685DF8044B023B7B
:102F8000D3607047D3685DF8044B0233D360704759
:102F9000D3685DF8044B0133D3607047A41DFF1F55
:102FA000214B10B4D3F8982013685068197804782E
:102FB000507A137A044201EA03011BD0937A03F09A
:102FC000030309B143F0040343F008039910013BE4
:102FD00091720D2B0BD8DFE803F021071B070A15B0
:102FE0002121150A071B0721D368013BD3605DF837
:102FF000044B7047937A03F003030029E6D043F0B3
:103000000403E3E7D3685DF8044B023BD3607047E9
:10301000D3685DF8044B0233D3607047D3685DF822
:10302000044B0133D3607047A41DFF1F214B10B424
:10303000D3F89C201368506819780478507A137A72
:10304000044201EA03011BD0937A03F0030309B1A0
:1030500043F0040343F008039910013B91720D2BD8
:103060000BD8DFE803F021071B070A152121150AF9
:10307000071B0721D368013BD3605DF8044B704701
:10308000937A03F003030029E6D043F00403E3E757
:10309000D3685DF8044B023BD3607047D3685DF89A
:1030A000044B0233D3607047D3685DF8044B01339F
:1030B000D3607047A41DFF1F214B10B4D3F8A0208C
:1030C0001368506819780478507A137A044201EA38
:1030D00003011BD0937A03F0030309B143F0040307
:1030E00043F008039910013B91720D2B0BD8DFE8D8
:1030F00003F021071B070A152121150A071B0721C9
:10310000D368013BD3605DF8044B7047937A03F0BA
:1031100003030029E6D043F00403E3E7D3685DF836
:10312000044B023BD3607047D3685DF8044B023315
:10313000D3607047D3685DF8044B0133D3607047A8
:10314000A41DFF1F214B10B4D3F8A42013685068AE
:1031500019780478507A137A044201EA03011BD0EB
:10316000937A03F0030309B143F0040343F0080327
:103170009910013B91720D2B0BD8DFE803F021076A
:103180001B070A152121150A071B0721D368013BDC
:10319000D3605DF8044B7047937A03F00303002972
:1031A000E6D043F00403E3E7D3685DF8044B023B49
:1031B000D3607047D3685DF8044B0233D360704727
:1031C000D3685DF8044B0133D3607047A41DFF1F23
:1031D000214B10B4D3F8A8201368506819780478EC
:1031E000507A137A044201EA03011BD0937A03F068
:1031F000030309B143F0040343F008039910013BB2
:1032000091720D2B0BD8DFE803F021071B070A157D
:103210002121150A071B0721D368013BD3605DF804
:10322000044B7047937A03F003030029E6D043F080
:103230000403E3E7D3685DF8044B023BD3607047B7
:10324000D3685DF8044B0233D3607047D3685DF8F0
:10325000044B0133D3607047A41DFF1F214B10B4F2
:10326000D3F8AC201368506819780478507A137A30
:10327000044201EA03011BD0937A03F0030309B16E
:1032800043F0040343F008039910013B91720D2BA6
:103290000BD8DFE803F021071B070A152121150AC7
:1032A000071B0721D368013BD3605DF8044B7047CF
:1032B000937A03F003030029E6D043F00403E3E725
:1032C000D3685DF8044B023BD3607047D3685DF868
:1032D000044B0233D3607047D3685DF8044B01336D
:1032E000D3607047A41DFF1F214B10B4D3F8B0204A
:1032F0001368506819780478507A137A044201EA06
:1033000003011BD0937A03F0030309B143F00403D4
:1033100043F008039910013B91720D2B0BD8DFE8A5
:1033200003F021071B070A152121150A071B072196
:10333000D368013BD3605DF8044B7047937A03F088
:1033400003030029E6D043F00403E3E7D3685DF804
:10335000044B023BD3607047D3685DF8044B0233E3
:10336000D3607047D3685DF8044B0133D360704776
:10337000A41DFF1F214B10B4D3F8B420136850686C
:1033800019780478507A137A044201EA03011BD0B9
:10339000937A03F0030309B143F0040343F00803F5
:1033A0009910013B91720D2B0BD8DFE803F0210738
:1033B0001B070A152121150A071B0721D368013BAA
:1033C000D3605DF8044B7047937A03F00303002940
:1033D000E6D043F00403E3E7D3685DF8044B023B17
:1033E000D3607047D3685DF8044B0233D3607047F5
:1033F000D3685DF8044B0133D3607047A41DFF1FF1
:10340000214B10B4D3F8B8201368506819780478A9
:10341000507A137A044201EA03011BD0937A03F035
:10342000030309B143F0040343F008039910013B7F
:1034300091720D2B0BD8DFE803F021071B070A154B
:103440002121150A071B0721D368013BD3605DF8D2
:10345000044B7047937A03F003030029E6D043F04E
:103460000403E3E7D3685DF8044B023BD360704785
:10347000D3685DF8044B0233D3607047D3685DF8BE
:10348000044B0133D3607047A41DFF1F214B10B4C0
:10349000D3F8BC201368506819780478507A137AEE
:1034A000044201EA03011BD0937A03F0030309B13C
:1034B00043F0040343F008039910013B91720D2B74
:1034C0000BD8DFE803F021071B070A152121150A95
:1034D000071B0721D368013BD3605DF8044B70479D
:1034E000937A03F003030029E6D043F00403E3E7F3
:1034F000D3685DF8044B023BD3607047D3685DF836
:10350000044B0233D3607047D3685DF8044B01333A
:10351000D3607047A41DFF1F214B10B4D3F8C02007
:103520001368506819780478507A137A044201EAD3
:1035300003011BD0937A03F0030309B143F00403A2
:1035400043F008039910013B91720D2B0BD8DFE873
:1035500003F021071B070A152121150A071B072164
:10356000D368013BD3605DF8044B7047937A03F056
:1035700003030029E6D043F00403E3E7D3685DF8D2
:10358000044B023BD3607047D3685DF8044B0233B1
:10359000D3607047D3685DF8044B0133D360704744
:1035A000A41DFF1F214B10B4D3F8C420136850682A
:1035B00019780478507A137A044201EA03011BD087
:1035C000937A03F0030309B143F0040343F00803C3
:1035D0009910013B91720D2B0BD8DFE803F0210706
:1035E0001B070A152121150A071B0721D368013B78
:1035F000D3605DF8044B7047937A03F0030300290E
:10360000E6D043F00403E3E7D3685DF8044B023BE4
:10361000D3607047D3685DF8044B0233D3607047C2
:10362000D3685DF8044B0133D3607047A41DFF1FBE
:10363000214B10B4D3F8E820136850681978047847
:10364000507A137A044201EA03011BD0937A03F003
:10365000030309B143F0040343F008039910013B4D
:1036600091720D2B0BD8DFE803F021071B070A1519
:103670002121150A071B0721D368013BD3605DF8A0
:10368000044B7047937A03F003030029E6D043F01C
:103690000403E3E7D3685DF8044B023BD360704753
:1036A000D3685DF8044B0233D3607047D3685DF88C
:1036B000044B0133D3607047A41DFF1F214B10B48E
:1036C000D3F8EC201368506819780478507A137A8C
:1036D000044201EA03011BD0937A03F0030309B10A
:1036E00043F0040343F008039910013B91720D2B42
:1036F0000BD8DFE803F021071B070A152121150A63
:10370000071B0721D368013BD3605DF8044B70476A
:10371000937A03F003030029E6D043F00403E3E7C0
:10372000D3685DF8044B023BD3607047D3685DF803
:10373000044B0233D3607047D3685DF8044B013308
:10374000D3607047A41DFF1F214B10B4D3F8C820CD
:103750001368506819780478507A137A044201EAA1
:1037600003011BD0937A03F0030309B143F0040370
:1037700043F008039910013B91720D2B0BD8DFE841
:1037800003F021071B070A152121150A071B072132
:10379000D368013BD3605DF8044B7047937A03F024
:1037A00003030029E6D043F00403E3E7D3685DF8A0
:1037B000044B023BD3607047D3685DF8044B02337F
:1037C000D3607047D3685DF8044B0133D360704712
:1037D000A41DFF1F214B10B4D3F8CC2013685068F0
:1037E00019780478507A137A044201EA03011BD055
:1037F000937A03F0030309B143F0040343F0080391
:103800009910013B91720D2B0BD8DFE803F02107D3
:103810001B070A152121150A071B0721D368013B45
:10382000D3605DF8044B7047937A03F003030029DB
:10383000E6D043F00403E3E7D3685DF8044B023BB2
:10384000D3607047D3685DF8044B0233D360704790
:10385000D3685DF8044B0133D3607047A41DFF1F8C
:10386000214B10B4D3F8D02013685068197804782D
:10387000507A137A044201EA03011BD0937A03F0D1
:10388000030309B143F0040343F008039910013B1B
:1038900091720D2B0BD8DFE803F021071B070A15E7
:1038A0002121150A071B0721D368013BD3605DF86E
:1038B000044B7047937A03F003030029E6D043F0EA
:1038C0000403E3E7D3685DF8044B023BD360704721
:1038D000D3685DF8044B0233D3607047D3685DF85A
:1038E000044B0133D3607047A41DFF1F214B10B45C
:1038F000D3F8D4201368506819780478507A137A72
:10390000044201EA03011BD0937A03F0030309B1D7
:1039100043F0040343F008039910013B91720D2B0F
:103920000BD8DFE803F021071B070A152121150A30
:10393000071B0721D368013BD3605DF8044B704738
:10394000937A03F003030029E6D043F00403E3E78E
:10395000D3685DF8044B023BD3607047D3685DF8D1
:10396000044B0233D3607047D3685DF8044B0133D6
:10397000D3607047A41DFF1F214B10B4D3F8D8208B
:103980001368506819780478507A137A044201EA6F
:1039900003011BD0937A03F0030309B143F004033E
:1039A00043F008039910013B91720D2B0BD8DFE80F
:1039B00003F021071B070A152121150A071B072100
:1039C000D368013BD3605DF8044B7047937A03F0F2
:1039D00003030029E6D043F00403E3E7D3685DF86E
:1039E000044B023BD3607047D3685DF8044B02334D
:1039F000D3607047D3685DF8044B0133D3607047E0
:103A0000A41DFF1F214B10B4D3F8DC2013685068AD
:103A100019780478507A137A044201EA03011BD022
:103A2000937A03F0030309B143F0040343F008035E
:103A30009910013B91720D2B0BD8DFE803F02107A1
:103A40001B070A152121150A071B0721D368013B13
:103A5000D3605DF8044B7047937A03F003030029A9
:103A6000E6D043F00403E3E7D3685DF8044B023B80
:103A7000D3607047D3685DF8044B0233D36070475E
:103A8000D3685DF8044B0133D3607047A41DFF1F5A
:103A9000214B10B4D3F8E0201368506819780478EB
:103AA000507A137A044201EA03011BD0937A03F09F
:103AB000030309B143F0040343F008039910013BE9
:103AC00091720D2B0BD8DFE803F021071B070A15B5
:103AD0002121150A071B0721D368013BD3605DF83C
:103AE000044B7047937A03F003030029E6D043F0B8
:103AF0000403E3E7D3685DF8044B023BD3607047EF
:103B0000D3685DF8044B0233D3607047D3685DF827
:103B1000044B0133D3607047A41DFF1F214B10B429
:103B2000D3F8E4201368506819780478507A137A2F
:103B3000044201EA03011BD0937A03F0030309B1A5
:103B400043F0040343F008039910013B91720D2BDD
:103B50000BD8DFE803F021071B070A152121150AFE
:103B6000071B0721D368013BD3605DF8044B704706
:103B7000937A03F003030029E6D043F00403E3E75C
:103B8000D3685DF8044B023BD3607047D3685DF89F
:103B9000044B0233D3607047D3685DF8044B0133A4
:103BA000D3607047A41DFF1F2DE9F041632984B045
:103BB00003DD90F8F874002F53D0136805460F46C4
:103BC00010461B6805F223219847C2B2C0F30721B3
:103BD000561885F81E2247F30722F643FF234FF0BD
:103BE000FE0EFCB285F82222421C85F8206285F880
:103BF0001F1285F81C3285F81DE285F821420DDB85
:103C000000F22221294405F22123002201E013F8C9
:103C1000014F99422244FAD1D343DBB22A1800F172
:103C20000807B7F5007F82F823321EDC002F05F568
:103C3000077616DD0730DFF81081064405F21B24F5
:103C400003E007F0C1FBB4420BD06A6814F8011F0F
:103C500013681B6843450846F3D010469847B442A2
:103C6000F3D1384604B0BDE8F081344A0192344CB7
:103C70002B68039403228DF808201B6831498B427E
:103C800055D10023382185F8232204F1300E85F820
:103C9000241285F8253285F8263285F8273205F575
:103CA0000A7627460FCF774530607160B260F360C7
:103CB0003C4606F11006F4D103CC00227160C22309
:103CC0004FF0FF0EFE273D240721306085F820329B
:103CD00085F81CE285F81D7285F81E4285F81F22C2
:103CE00085F8222285F8211205F2212305F25F20B2
:103CF00001E013F8011F98420A44FAD1D243DFF8D9
:103D0000488085F8602205F21B2405F5187603E04B
:103D100007F05AFBB4420ED06A6814F8011F13680A
:103D20001B6843450846F3D010469847F2E72846FB
:103D300001AA072198474FF0FF3093E714170100BD
:103D4000E0190100A93B0000B509000008B50E48C4
:103D500004F0CCFD0D4805F0E7F80C4805F008F933
:103D600008B9002008BD0A4805F0DEF8084805F04B
:103D7000FFF80028F5D0074805F0D6F80548BDE85B
:103D8000084005F0F5B800BF7808FF1F041DFF1FAD
:103D9000C01CFF1F8416FF1F10B5002382B0224AEB
:103DA0000260044601AA43608360C3600DF1020112
:103DB0000DF106031D4805F0F7F8BDF9020009F002
:103DC0000DF800221A4B09F06FF815A3D3E9002370
:103DD00009F06AF809F02AFB6060BDF9040008F0F8
:103DE000FDFF0022124B09F05FF80DA3D3E9002379
:103DF00009F05AF809F01AFBA060BDF9060008F0B6
:103E0000EDFF00220A4B09F04FF805A3D3E9002388
:103E100009F04AF809F00AFBE060204602B010BD44
:103E200000000060B89E23405C170100041DFF1FC6
:103E30000000103FFFFFFFFF10B5002382B0264AAD
:103E40000260044601AA43608360C3600DF1020171
:103E50000DF10603214805F001F9BDF9020008F053
:103E6000BDFF19A3D3E9002309F048F918A3D3E94A
:103E7000002309F019F809F0D9FA6060BDF90400CF
:103E800008F0ACFF10A3D3E9002309F037F910A321
:103E9000D3E9002309F008F809F0C8FAA060BDF9D9
:103EA000060008F09BFF08A3D3E9002309F026F9D8
:103EB00007A3D3E9002308F0F7FF09F0B7FAE060A1
:103EC000204602B010BD00BF00000000006060404E
:103ED000000000A046DF913F5C170100C01CFF1FDF
:103EE00010B5002382B0264A0260044601AA43604E
:103EF0008360C3600DF102010DF10603214805F056
:103F000075F8BDF9020008F069FF19A3D3E9002391
:103F100008F0CAFF18A3D3E9002308F0C5FF09F091
:103F200085FA6060BDF9040008F058FF10A3D3E9DA
:103F3000002308F0B9FF10A3D3E9002308F0B4FF71
:103F400009F074FAA060BDF9060008F047FF08A365
:103F5000D3E9002308F0A8FF07A3D3E9002308F062
:103F6000A3FF09F063FAE060204602B010BD00BF75
:103F7000000000403333E33F000000A0F7C6B03E2E
:103F80005C1701008416FF1FF8B5044615460E465F
:103F9000084602211F4606F023F92846022106F0B2
:103FA0001FF99B499B4A51F836002760012300F511
:103FB0000077E760237551F83510637501F50077D8
:103FC0000023A36127611346013BFDD190F8003225
:103FD00091F8002203F00103D20744BF43F002032B
:103FE000DBB2A37504F10C073B2E00F20486DFE878
:103FF00016F0F505EB05E105D705CD05C305B905B7
:10400000AF05A5059B05910587057D057305690528
:104010005F0555054B05410537052D052305190598
:104020000F050505FB04F104E704DD04D304C9040E
:10403000BF04B404A9049E04930488047D042904E5
:104040001F0415040B040104F703ED03E303D90374
:10405000CF03C503BB03B103A7039D0393038903E8
:104060007F0375036B0361033C006B4B6B49C3F823
:10407000EC7004223B2005F07FFE012323773B2DCB
:1040800000F2B685DFE815F00C030203F802EE0239
:10409000E402DA02D002C602BC02B202A8029E0208
:1040A00094028A028002320228021E0214020A02CC
:1040B0000002F601EC01E201D801CE01C401BA010F
:1040C000B001A6019C01920187017C01710166018A
:1040D0005B01500145013A012F01240119010E0134
:1040E0000301F800ED00E200B800AD00A200970067
:1040F0008C00810076006B00600055004A003C0097
:10410000454B4649C3F8EC7004223B2005F034FED1
:10411000237F0122134423772046F8BD3E4B4049BC
:10412000C3F8E87004223A2005F026FE237F01221E
:10413000F0E7394B3B49C3F8E4700422392005F01D
:104140001BFE237F0122E5E7334B3749C3F8E070BC
:104150000422382005F010FE237F0122DAE72E4BDF
:104160003249C3F8DC700422372005F005FE237FB6
:104170000122CFE7284B2E49C3F8D87004223620FD
:1041800005F0FAFD237F0122C4E7234B2949C3F838
:10419000D4700422352005F0EFFD237F0122B9E71A
:1041A0001D4B2549C3F8D0700422342005F0E4FDEE
:1041B000237F0122AEE7184B2049C3F8CC700422BC
:1041C000332005F0D9FD237F0122A3E7124B1C49C0
:1041D000C3F8C8700422322005F0CEFD237F0122EF
:1041E00098E70D4B1749C3F8C4700422312005F03D
:1041F000C3FD237F01228DE7074B1349C3F8C0702D
:104200000422302005F0B8FD237F012282E700BFA1
:10421000A41B0100C0D40100A41DFF1FBD36000077
:10422000313600001D3B0000913A0000053A0000C5
:1042300079390000ED38000061380000D537000002
:1042400049370000A535000019350000AC4BAD49D9
:10425000C3F8BC7004222F2005F08EFD237F0122BD
:1042600058E7A74BA849C3F8B87004222E2005F0E0
:1042700083FD237F01224DE7A14BA449C3F8B4700D
:1042800004222D2005F078FD237F012242E79C4B7C
:104290009F49C3F8B07004222C2005F06DFD237FE8
:1042A000012237E7964B9B49C3F8AC7004222B20C0
:1042B00005F062FD237F01222CE7914B9649C3F85C
:1042C000A87004222A2005F057FD237F012221E750
:1042D0008B4B9249C3F8A4700422292005F04CFDB1
:1042E000237F012216E7864B8D49C3F8A070042274
:1042F000282005F041FD237F01220BE7804B8949EF
:10430000C3F89C700422272005F036FD237F01228C
:1043100000E77B4B8449C3F898700422262005F0FF
:104320002BFD237F0122F5E6754B8049C3F894707D
:104330000422252005F020FD237F0122EAE6704BB0
:104340007B49C3F890700422242005F015FD237FDB
:104350000122DFE66A4B7749C3F88C7004222320E0
:1043600005F00AFD237F0122D4E6654B7249C3F8AC
:1043700088700422222005F0FFFC237F0122C9E679
:104380005F4B6E49C3F884700422212005F0F4FCD1
:10439000237F0122BEE65A4B6949C3F8807004228C
:1043A000202005F0E9FC237F0122B3E6544B654948
:1043B000DF6704221F2005F0DFFC237F0122A9E62E
:1043C0004F4B61499F6704221E2005F0D5FC237FD7
:1043D00001229FE64A4B5D495F6704221D2005F0DC
:1043E000CBFC237F012295E6454B59491F670422E8
:1043F0001C2005F0C1FC237F01228BE6404B554970
:10440000DF6604221B2005F0B7FC237F012281E632
:104410003B4B51499F6604221A2005F0ADFC237FD7
:10442000012277E6364B4D495F660422192005F0DC
:10443000A3FC237F01226DE6314B49491F6604220C
:10444000182005F099FC237F012263E62C4B454997
:10445000DF650422172005F08FFC237F012259E637
:10446000274B41499F650422162005F085FC237FD8
:1044700001224FE6224B3D495F650422152005F0DD
:104480007BFC237F012245E61D4B39491F65042231
:10449000142005F071FC237F01223BE6184B3549BF
:1044A000DF640422132005F067FC237F012231E63C
:1044B000134B31499F640422122005F05DFC237FD9
:1044C000012227E60E4B2D495F640422112005F0DE
:1044D00053FC237F01221DE6094B29491F64042256
:1044E000102005F049FC237F012213E6044B2549E7
:1044F000DF6304220F2005F03FFC237F012209E641
:10450000A41DFF1F8D34000001340000753300002E
:10451000E93200005D320000D13100004531000079
:10452000B93000002D300000A12F0000152F000031
:10453000892E0000FD2D0000712D0000E52C0000EB
:10454000592C0000CD2B0000412B0000B52A0000A3
:10455000292A00009D29000011290000852800005B
:10456000F92700006D270000E12600005526000015
:10457000C92500003D250000B124000025240000CD
:10458000992300000D230000B34BB4499F6304221C
:104590000E2005F0F1FB237F0122BBE5AE4BB049B5
:1045A0005F6304220D2005F0E7FB237F0122B1E5C4
:1045B000A94BAC491F6304220C2005F0DDFB237FCF
:1045C0000122A7E5A44BA849DF6204220B2005F0D5
:1045D000D3FB237F01229DE59F4BA4499F620422C8
:1045E0000A2005F0C9FB237F012293E59A4BA049DD
:1045F0005F620422092005F0BFFB237F012289E5C9
:10460000954B9C491F620422082005F0B5FB237FCF
:1046100001227FE5904B9849DF610422072005F0D5
:10462000ABFB237F012275E58B4B94499F610422EC
:10463000062005F0A1FB237F01226BE5864B904904
:104640005F610422052005F097FB237F012261E5CD
:10465000814B8C491F610422104605F08DFB237F9E
:10466000012257E57C4B8849DF600422032005F0D6
:1046700083FB237F01224DE5774B84499F60042211
:10468000022005F079FB237F012243E5724B80492C
:104690005F600422012005F06FFB237F012239E5D2
:1046A0006D4B7C491F600422002005F065FB237FD1
:1046B00001222FE5684B7849C3F8E87004223A20BC
:1046C00005F05AFB0123D9E4634B7449C3F8E47045
:1046D0000422392005F050FB0123CFE45E4B7049E2
:1046E000C3F8E0700422382005F046FB0123C5E43E
:1046F000594B6C49C3F8DC700422372005F03CFBB1
:104700000123BBE4544B6849C3F8D8700422362017
:1047100005F032FB0123B1E44F4B6449C3F8D47078
:104720000422352005F028FB0123A7E44A4B604909
:10473000C3F8D0700422342005F01EFB01239DE451
:10474000454B5C49C3F8CC700422332005F014FBC0
:10475000012393E4404B5849C3F8C8700422322027
:1047600005F00AFB012389E43B4B5449C3F8C470AC
:104770000422312005F000FB01237FE4364B504931
:10478000C3F8C0700422302005F0F6FA012375E466
:10479000314B4C49C3F8BC7004222F2005F0ECFAD1
:1047A00001236BE42C4B4849C3F8B87004222E2037
:1047B00005F0E2FA012361E4274B4449C3F8B470E1
:1047C00004222D2005F0D8FA012357E4224B40495A
:1047D000C3F8B07004222C2005F0CEFA01234DE47A
:1047E0001D4B3C49C3F8AC7004222B2005F0C4FAE1
:1047F000012343E4184B3849C3F8A87004222A2047
:1048000005F0BAFA012339E4134B3449C3F8A47014
:104810000422292005F0B0FA01232FE40E4B304981
:10482000C3F8A0700422282005F0A6FA012325E48D
:10483000094B2C49C3F89C700422272005F09CFAF0
:1048400001231BE4044B2849C3F898700422262056
:1048500005F092FA012311E4A41DFF1F812200003C
:10486000F521000069210000DD200000512000003A
:10487000C51F0000391F0000AD1E0000211E0000F2
:10488000951D0000091D00007D1C0000F11B0000AB
:10489000651B0000D91A0000313600001D3B0000E6
:1048A000913A0000053A000079390000ED38000027
:1048B00061380000D537000049370000A5350000F9
:1048C000193500008D3400000134000075330000FC
:1048D000E93200005D320000D131000045310000B6
:1048E000B93000002D300000A12F0000C34BC44997
:1048F000C3F894700422252005F03EFA0123FFF747
:10490000BDBBBE4BBF49C3F890700422242005F004
:1049100033FA0123FFF7B2BBB84BBB49C3F88C7025
:104920000422232005F028FA0123FFF7A7BBB34B8D
:10493000B649C3F888700422222005F01DFA01232D
:10494000FFF79CBBAD4BB249C3F884700422212011
:1049500005F012FA0123FFF791BBA84BAD49C3F84C
:1049600080700422202005F007FA0123FFF786BBA0
:10497000A24BA949DF6704221F2005F0FDF901239E
:10498000FFF77CBB9D4BA5499F6704221E2005F0C5
:10499000F3F90123FFF772BB984BA1495F6704222B
:1049A0001D2005F0E9F90123FFF768BB934B9D49F2
:1049B0001F6704221C2005F0DFF90123FFF75EBB0F
:1049C0008E4B9949DF6604221B2005F0D5F901239F
:1049D000FFF754BB894B95499F6604221A2005F0C6
:1049E000CBF90123FFF74ABB844B91495F66042250
:1049F000192005F0C1F90123FFF740BB7F4B8D491A
:104A00001F660422182005F0B7F90123FFF736BB13
:104A10007A4B8949DF650422172005F0ADF901239F
:104A2000FFF72CBB754B85499F650422162005F0C6
:104A3000A3F90123FFF722BB704B81495F65042274
:104A4000152005F099F90123FFF718BB6B4B7D4941
:104A50001F650422142005F08FF90123FFF70EBB18
:104A6000664B7949DF640422132005F085F90123A0
:104A7000FFF704BB614B75499F640422122005F0C7
:104A80007BF90123FFF7FABA5C4B71495F6404229A
:104A9000112005F071F90123FFF7F0BA574B6D496A
:104AA0001F640422102005F067F90123FFF7E6BA1E
:104AB000524B6949DF6304220F2005F05DF90123A1
:104AC000FFF7DCBA4D4B65499F6304220E2005F0C9
:104AD00053F90123FFF7D2BA484B61495F630422BF
:104AE0000D2005F049F90123FFF7C8BA434B5D4992
:104AF0001F6304220C2005F03FF90123FFF7BEBA23
:104B00003E4B5949DF6204220B2005F035F90123A1
:104B1000FFF7B4BA394B55499F6204220A2005F0C9
:104B20002BF90123FFF7AABA344B51495F620422E3
:104B3000092005F021F90123FFF7A0BA2F4B4D49B9
:104B40001F620422082005F017F90123FFF796BA27
:104B50002A4B4949DF610422072005F00DF90123A2
:104B6000FFF78CBA254B45499F610422062005F0CA
:104B700003F90123FFF782BA204B41495F61042208
:104B8000052005F0F9F80123FFF778BA1B4B3D49E2
:104B90001F610422104605F0EFF80123FFF76EBAFB
:104BA000164B3949DF600422032005F0E5F80123A4
:104BB000FFF764BA114B35499F600422022005F0CB
:104BC000DBF80123FFF75ABA0C4B31495F6004222E
:104BD000012005F0D1F80123FFF750BA074B2D490A
:104BE0001F600422002005F0C7F80123FFF746BA32
:104BF0000022FFF78FBA0023FFF740BAA41DFF1F62
:104C0000152F0000892E0000FD2D0000712D0000E1
:104C1000E52C0000592C0000CD2B0000412B00009A
:104C2000B52A0000292A00009D2900001129000052
:104C300085280000F92700006D270000E12600000C
:104C400055260000C92500003D250000B1240000C4
:104C500025240000992300000D230000812200007C
:104C6000F521000069210000DD2000005120000036
:104C7000C51F0000391F0000AD1E0000211E0000EE
:104C8000951D0000091D00007D1C0000F11B0000A7
:104C9000651B0000D91A00002DE9F04F072193B0E1
:104CA000C248C34C04F0EAFC5A21C04804F0ECFCB2
:104CB00000234FF46142A260C4F8E43404F27C4261
:104CC000C4F8E834C4F8F034C4F8EC3402E001333A
:104CD000192B0AD052F8041F0029F8D103F590715E
:104CE000B44A44F8212064335360B34A002302E0FD
:104CF0000133192B0AD052F8041F0029F8D103F50B
:104D00009071AE4A44F8212064335360AC4A0023CA
:104D100002E00133192B0BD052F8041F0029F8D1FF
:104D2000A84A04EB83017D33C1F81C249360D4604E
:104D3000A34A002302E00133192B0BD052F8041FC1
:104D40000029F8D1A04A04EB83017D33C1F81C246B
:104D50009360D4609D4B94F8F824DFF88CA29C4EAD
:104D6000DFF8889202930192A3F50775019B002B4F
:104D700040F0E38033680A93DDF828B0D4F80035BA
:104D800042F6F822C3EB0B03934284BF9DF8043034
:104D900085F8F834D4F8E43433B1D5F804359B45BC
:104DA00084BF0023C5F8E434A2693AB133680E9396
:104DB0000E9BCBEB03039A42C0F0DA816068036874
:104DC0005B694B4554D106F015FA002853DBD4F843
:104DD000F434D4F8E4240344072AC4F8F43400F08B
:104DE0001D817AB9FF2800F02C8133680D930D9B4B
:104DF00041F28831CBEB03038B42D5D96C4B83F85E
:104E0000F824B7E7012A00F02481022A00F0758116
:104E1000032A00F07D81042A00F08481052A00F035
:104E20009081062A00F09581082ABDD1694A1A406E
:104E300000239A42C4F8E434C0F2A481FF2AB3D11B
:104E4000D4F8EC34002B00F0F2820A2B00F0A3819E
:104E5000062B00F0E3810B2B00F09981BC3355F851
:104E600023000028A0D003685B491B6898479BE794
:104E700098470028ABDA94F8F8340193002B3FF4FC
:104E800079AFD5F8FC3440F6C412C3EB0B03934260
:104E90007FF66CAFFF21FE27504B85F81C120821CE
:104EA000002285F81D7285F81E12F7270A2103F1EA
:104EB000090085F8232285F8242285F8252285F823
:104EC000262285F8272285F8282285F8292285F8C8
:104ED0002A2285F81F2285F8222285F8207285F87B
:104EE000211201E013F8011F98420A44FAD1029BF3
:104EF000D24384F82B22984603F10F07FF2105E0E7
:104F000006F062FAB8450BD018F8011F6268136802
:104F10001B6853450846F3D010469847B845F3D16F
:104F200033680993099BE36094F8F8340193019B7B
:104F3000C4F8FCB4002B3FF41DAF294E294D0FCE11
:104F40000FC52B46326823F817290126FF210022BE
:104F5000A8194FF0120EFE2784F82362E8251726C1
:104F600084F81C12072184F824E284F8252284F8AE
:104F7000262284F8272284F81F2284F8222284F82B
:104F80001D7284F81E6284F8205284F8211201E018
:104F900013F8011F98420A44FAD1029DD24384F8C3
:104FA0003A2205F11E06FF2128E000BF2C16FF1F44
:104FB0005017FF1F0816FF1FCC1BFF1F9415FF1F64
:104FC000681BFF1F641DFF1F801DFF1F6C19FF1F43
:104FD000D81EFF1FFF0000806C17FF1F7119FF1FF5
:104FE0001C1A01007819FF1FB50900009D07000079
:104FF00006F0EAF9B5420BD015F8011F6268136894
:105000001B6853450846F3D010469847B542F3D184
:10501000012005F0EBF813B0BDE8F08FD5F8F024CF
:10502000D5F8E834A918013B01320877C5F8F02417
:10503000C5F8E834002B7FF4B7AE0823C4F8E43495
:10504000B2E601220BF11403C5F8E424C5F80435D7
:10505000AAE6FE2871D095F8F8240023C5F8E434B8
:10506000002A7FF4A1AEFF21FE27654B85F81C12B4
:10507000082185F81D7285F81E12F7270A2185F888
:10508000232285F8242285F8252285F8262285F812
:10509000272285F8282285F8292285F82A2285F8F2
:1050A0001F2285F8222203F1090085F8207285F875
:1050B000211201E013F8011F83420A44FAD1029B36
:1050C000D24384F82B221F4603F10F08FF2105E08D
:1050D00006F07AF947450BD017F8011F626813688C
:1050E0001B6853450846F3D0104698474745F3D10F
:1050F00033680C930C9BE36056E600220323C5F84B
:10510000E804C5F8F404C5F8F024C5F8E4344BE627
:10511000D5F8E83403EB00200423C5F8E804C5F80B
:10512000E43441E6374A1A40002A26DBFF2A0CBF46
:1051300005230023C4F8E43436E60223C5F8E4343A
:1051400032E60623C5F8EC04C5F8F404C5F8E434E7
:105150002AE6D5F8EC34D5F8E82403EB0023072140
:10516000C5F8EC34C5F8E414002A3FF466AF1BE63A
:10517000254B93F8F8340193F8E5013A62F0FF0209
:105180000132D3E7013A62F0FF02013256E6002312
:1051900085F8F83408E633680F930F9BEA681B48DC
:1051A000316811919B1A296ADFF868E0DFF868809E
:1051B000DDF844C0EA69A0FB0307BF094FF47A7029
:1051C0008E4400FB173308FB03E303930F4B104996
:1051D000A3FB0C3E4FEA9E1E039B013A00FB1EC040
:1051E0003A4408FB1033CEEB0202081F6B612A61C0
:1051F00003F082FE33681093109BC5F80035D3E5A9
:105200007119FF1FFF0000805017FF1FD34D621060
:105210006417FF1F00CA9A3B40420F00EF69D5F8A0
:1052200010359F4206D9B900D5F8180508F08EFC54
:10523000C5F81805C4F81075002F00F0E680A14AE3
:10524000042302F2145E002792F8221092F821C083
:1052500092F82000090441EA0C2192F823C001438E
:1052600041EA0C61C4F81415D4F81815DEF80000F2
:1052700041F82700D4F810050137B842194602F169
:10528000040203F10403DFD8059301F10B0301F1DC
:10529000090201F10808049301F10C030392474647
:1052A000481D01F1060E01F1070C01F10A020693F7
:1052B000A644059B211823449EF81C0091F81CE08D
:1052C0001B7FD4F81C15A44400049CF81CC040EAC1
:1052D0000E20034343EA0C638B420AD99900D5F8A8
:1052E00024050792059308F031FC079A059BC5F841
:1052F0002405C4F81C35002B00F0E280DFF8D0E173
:10530000EB1900219A7F93F81DC0187F120442EA1E
:105310000C2293F81FC0024342EA0C62CEF8002030
:10532000D4F82425DEF8000042F82100D4F81C252A
:1053300001318A42384603F1040307F10407E1D83A
:10534000431D0393C31DB846821D049300F1080753
:10535000039B23442244187F049B117FD4F8282503
:10536000A04423449E46090498F81C309EF81C80F3
:1053700041EA00210B4343EA0868904507D94FEA08
:105380008801D5F8300508F0E1FBC5F83005C4F810
:105390002885B8F1000F34D0DFF838E100210EF590
:1053A000A26C07F11C080023A0441A4618F8010B50
:1053B00098400833202B42EA0002F7D1381D0244FE
:1053C00090420AD207F11F0323440746013793F89E
:1053D000018003F8018B9742F8D3A3184FF0000720
:1053E0000138DF767044D4F83035C4F82C05DCF889
:1053F000000043F82100D4F8283501318B421746CC
:10540000CFD8012384F80835CEE40C2306930B2370
:10541000049309234FF008080393042347460A2204
:105420004FF0070C4FF0060E0520059340E7264885
:10543000A0F22A2100F8073CFE2781F81C224FF039
:10544000080C0A4681F8243281F8253281F8263288
:1054500081F8273281F8283281F8293281F82A32FE
:1054600081F81D7281F81F3281F82232A0F1090EF5
:10547000F72781F81EC20A2182F8207282F82112D1
:10548000724601E012F8011F90420B44FAD10F4F0F
:10549000DB43A7F10F02029284F82B329046FF21E2
:1054A00005E005F091FFB84516D018F8011F6268B5
:1054B00013681B6853450846F3D010469847F2E737
:1054C000069F45E75017FF1F7A19FF1F7B19FF1F23
:1054D000701CFF1F6C17FF1F33680B93D14BCDF867
:1054E00004B01A460B9BE36093465BF8043F002B25
:1054F00000F0BF8058689A6801680392D3F8009062
:105500008B689847DBF80030804658680368DB6892
:105510009847DBF80030039A1E69632E074604DDC6
:1055200094F8F834002B00F0A480C2F30723484617
:1055300084F8232284F8243208F042FD0346020A4C
:10554000000C4FEA136E494684F8262284F827029D
:105550001A46B54884F82532039384F828E204F00B
:1055600093FA404608F02CFD039B024603F22920E3
:1055700020440633002122FA01FE0831202900F8D8
:1055800001EBF8D1A94804334146184402EB030863
:1055900004F07AFA384608F013FD08F22322814617
:1055A0002244002329FA03F10833202B02F8011BBF
:1055B000F8D19E4B08F10408394603EB08004A462F
:1055C00004F062FA09EB0800071D5FFA87FCC7F3D5
:1055D000072E04EB00080CEB0E010022C943022346
:1055E00088F8243288F8232288F8252288F8262291
:1055F00084F82012F1B246F30726FF234FF0FE088D
:1056000084F822627E1C84F81EC284F81FE284F8AB
:105610001C3284F81D8284F821120BDB00F226264E
:10562000834B2E4401E013F8011FB3420A44FAD120
:10563000D343DBB2E2190837B7F5007F82F8233293
:1056400000F34B81002F14DD00F22720794E2F1834
:1056500003E005F0B9FEBE420BD0626816F8011FE8
:1056600013681B6853450846F3D010469847BE425E
:10567000F3D1714B9B457FF438AF9B465BF8040F29
:10568000002800F0BF8090E80C0003939268D0F8E7
:10569000089090478046DBF800000268D268904787
:1056A0000746DBF800000268526890476328064608
:1056B000039B04DD94F8F824002A00F0A380C3F3D0
:1056C0000722484684F8233284F8242208F078FC24
:1056D0000346020A000C4FEA136E494684F826225C
:1056E00084F827021A46504884F82532039384F838
:1056F00028E204F0C9F9404608F062FC039B024628
:1057000003F2292020440633002122FA01FE083149
:10571000202900F801EBF8D14448043341461844ED
:1057200002EB030804F0B0F9384608F049FC08F22F
:10573000232281462244002329FA03F10833202B37
:1057400002F8011BF8D1394B08F10408394603EB84
:1057500008004A4604F098F909EB0800071D5FFAB3
:1057600087FCC7F3072E04EB00080CEB0E010022A8
:10577000C943022388F8243288F8232288F8252296
:1057800088F8262284F82012F1B246F30726FF2378
:105790004FF0FE0884F822627E1C84F81EC284F852
:1057A0001FE284F81C3284F81D8284F821120BDB7E
:1057B00000F226261E4B2E4401E013F8011FB342CF
:1057C0000A44FAD1D343DBB2E2190837B7F5007FB8
:1057D00082F8233234DC002F14DD00F22720154E2E
:1057E0002F1803E005F0F0FDB7420BD0626816F801
:1057F000011F13681B6853450846F3D010469847AD
:10580000B742F3D10D4B9B457FF438AFDDF804B0C0
:10581000C4F8FCB40123C4F800B584F8F834FFF7E9
:105820008CBB00BF681BFF1F7919FF1F7319FF1F77
:105830007119FF1F6B19FF1FCC1BFF1F301CFF1FAF
:105840004D4F4E4E0FCF0FC60FCF0FC60FCF0FC607
:1058500097E8030000234FF0030E3827FF2285F856
:1058600023E285F824724FF0FE0E3D2785F825329D
:1058700085F8263285F8273286E80300C22185F8AC
:105880001C220722F01D85F81F3285F82232373E90
:1058900085F81DE285F81E7285F8201285F8212210
:1058A00001E016F8012FB0421344FAD1344EDB4325
:1058B00084F86032A6F14407FF2005E005F084FD7E
:1058C000BE429FD017F8010F626813681B685345EA
:1058D0000146F3D010469847F2E7274F274E0FCFE7
:1058E0000FC60FCF0FC60FCF0FC697E803000023D8
:1058F0004FF0030E3827FF2285F823E285F8247243
:105900004FF0FE0E3D2785F8253285F8263285F8C2
:10591000273286E80300C22185F81C220722F01DE9
:1059200085F81F3285F82232373E85F81DE285F86A
:105930001E7285F8201285F8212201E016F8012F49
:1059400086421344FAD10E4EDB4384F86032A6F14E
:105950004407FF2006E005F037FDB7423FF489AE6B
:1059600017F8010F626813681B6853450146F2D0AF
:1059700010469847F1E700BFE01901007819FF1FB2
:10598000B019FF1FF0B585B0194D6846FEF704FA4F
:105990000199029A039BA9606846EA602B61FEF7B1
:1059A0004BFA0199029A039BA961EA612B6268464E
:1059B000FEF796FA0F4BDDED016ADC689DED027A89
:1059C0002268DDED037A16680B4A9968C5ED0A6A0C
:1059D000964285ED0B7AC5ED0C7A40F0EE81632995
:1059E0000CDD94F8F834002B00F0CE8106E000BF07
:1059F0008C1CFF1F801DFF1FA93B000095ED026A54
:105A000016EE103AC3F3C752002A40F0BF81164683
:105A1000C3F3C3400643B5EEC06A95ED036A84F84C
:105A200029625F01DE10DB1284F82832F1EE10FAF1
:105A300016EE103A48BF62F07F02002084F82A2256
:105A4000C3F3C75284F8230284F8240284F82502A1
:105A500084F8267284F82762002A00F0A48102F5F7
:105A60006072160176B2C2F30712C3F3C340064355
:105A7000B5EEC06A95ED046A84F831625F01DE100C
:105A8000DB1284F83032F1EE10FA16EE103A48BF0D
:105A900062F07F02002084F83222C3F3C75284F8F8
:105AA0002B0284F82C0284F82D0284F82E7284F8DC
:105AB0002F62002A00F0758102F56072160176B23D
:105AC000C2F30712C3F3C3400643B5EEC06A95EDB7
:105AD000066A84F839625F01DE10DB1284F838321E
